{
  "contractName": "FunkyCats",
  "abi": [
    {
      "inputs": [
        {
          "internalType": "string",
          "name": "_name",
          "type": "string"
        },
        {
          "internalType": "string",
          "name": "_symbol",
          "type": "string"
        },
        {
          "internalType": "uint256",
          "name": "_cost",
          "type": "uint256"
        },
        {
          "internalType": "uint256",
          "name": "_maxSupply",
          "type": "uint256"
        },
        {
          "internalType": "uint256",
          "name": "_allowMintingOn",
          "type": "uint256"
        },
        {
          "internalType": "string",
          "name": "_initBaseURI",
          "type": "string"
        },
        {
          "internalType": "string",
          "name": "_initNotRevealedUri",
          "type": "string"
        },
        {
          "internalType": "uint256",
          "name": "_royalityFee",
          "type": "uint256"
        },
        {
          "internalType": "address",
          "name": "_artist",
          "type": "address"
        }
      ],
      "stateMutability": "nonpayable",
      "type": "constructor"
    },
    {
      "anonymous": false,
      "inputs": [
        {
          "indexed": true,
          "internalType": "address",
          "name": "owner",
          "type": "address"
        },
        {
          "indexed": true,
          "internalType": "address",
          "name": "approved",
          "type": "address"
        },
        {
          "indexed": true,
          "internalType": "uint256",
          "name": "tokenId",
          "type": "uint256"
        }
      ],
      "name": "Approval",
      "type": "event"
    },
    {
      "anonymous": false,
      "inputs": [
        {
          "indexed": true,
          "internalType": "address",
          "name": "owner",
          "type": "address"
        },
        {
          "indexed": true,
          "internalType": "address",
          "name": "operator",
          "type": "address"
        },
        {
          "indexed": false,
          "internalType": "bool",
          "name": "approved",
          "type": "bool"
        }
      ],
      "name": "ApprovalForAll",
      "type": "event"
    },
    {
      "anonymous": false,
      "inputs": [
        {
          "indexed": true,
          "internalType": "address",
          "name": "previousOwner",
          "type": "address"
        },
        {
          "indexed": true,
          "internalType": "address",
          "name": "newOwner",
          "type": "address"
        }
      ],
      "name": "OwnershipTransferred",
      "type": "event"
    },
    {
      "anonymous": false,
      "inputs": [
        {
          "indexed": false,
          "internalType": "address",
          "name": "from",
          "type": "address"
        },
        {
          "indexed": false,
          "internalType": "address",
          "name": "to",
          "type": "address"
        },
        {
          "indexed": false,
          "internalType": "uint256",
          "name": "value",
          "type": "uint256"
        }
      ],
      "name": "Sale",
      "type": "event"
    },
    {
      "anonymous": false,
      "inputs": [
        {
          "indexed": true,
          "internalType": "address",
          "name": "from",
          "type": "address"
        },
        {
          "indexed": true,
          "internalType": "address",
          "name": "to",
          "type": "address"
        },
        {
          "indexed": true,
          "internalType": "uint256",
          "name": "tokenId",
          "type": "uint256"
        }
      ],
      "name": "Transfer",
      "type": "event"
    },
    {
      "inputs": [],
      "name": "allowMintingAfter",
      "outputs": [
        {
          "internalType": "uint256",
          "name": "",
          "type": "uint256"
        }
      ],
      "stateMutability": "view",
      "type": "function",
      "constant": true
    },
    {
      "inputs": [
        {
          "internalType": "address",
          "name": "to",
          "type": "address"
        },
        {
          "internalType": "uint256",
          "name": "tokenId",
          "type": "uint256"
        }
      ],
      "name": "approve",
      "outputs": [],
      "stateMutability": "nonpayable",
      "type": "function"
    },
    {
      "inputs": [],
      "name": "artist",
      "outputs": [
        {
          "internalType": "address",
          "name": "",
          "type": "address"
        }
      ],
      "stateMutability": "view",
      "type": "function",
      "constant": true
    },
    {
      "inputs": [
        {
          "internalType": "address",
          "name": "owner",
          "type": "address"
        }
      ],
      "name": "balanceOf",
      "outputs": [
        {
          "internalType": "uint256",
          "name": "",
          "type": "uint256"
        }
      ],
      "stateMutability": "view",
      "type": "function",
      "constant": true
    },
    {
      "inputs": [],
      "name": "baseExtension",
      "outputs": [
        {
          "internalType": "string",
          "name": "",
          "type": "string"
        }
      ],
      "stateMutability": "view",
      "type": "function",
      "constant": true
    },
    {
      "inputs": [],
      "name": "cost",
      "outputs": [
        {
          "internalType": "uint256",
          "name": "",
          "type": "uint256"
        }
      ],
      "stateMutability": "view",
      "type": "function",
      "constant": true
    },
    {
      "inputs": [
        {
          "internalType": "uint256",
          "name": "tokenId",
          "type": "uint256"
        }
      ],
      "name": "getApproved",
      "outputs": [
        {
          "internalType": "address",
          "name": "",
          "type": "address"
        }
      ],
      "stateMutability": "view",
      "type": "function",
      "constant": true
    },
    {
      "inputs": [
        {
          "internalType": "address",
          "name": "owner",
          "type": "address"
        },
        {
          "internalType": "address",
          "name": "operator",
          "type": "address"
        }
      ],
      "name": "isApprovedForAll",
      "outputs": [
        {
          "internalType": "bool",
          "name": "",
          "type": "bool"
        }
      ],
      "stateMutability": "view",
      "type": "function",
      "constant": true
    },
    {
      "inputs": [],
      "name": "isPaused",
      "outputs": [
        {
          "internalType": "bool",
          "name": "",
          "type": "bool"
        }
      ],
      "stateMutability": "view",
      "type": "function",
      "constant": true
    },
    {
      "inputs": [],
      "name": "isRevealed",
      "outputs": [
        {
          "internalType": "bool",
          "name": "",
          "type": "bool"
        }
      ],
      "stateMutability": "view",
      "type": "function",
      "constant": true
    },
    {
      "inputs": [],
      "name": "maxMintAmount",
      "outputs": [
        {
          "internalType": "uint256",
          "name": "",
          "type": "uint256"
        }
      ],
      "stateMutability": "view",
      "type": "function",
      "constant": true
    },
    {
      "inputs": [],
      "name": "maxSupply",
      "outputs": [
        {
          "internalType": "uint256",
          "name": "",
          "type": "uint256"
        }
      ],
      "stateMutability": "view",
      "type": "function",
      "constant": true
    },
    {
      "inputs": [],
      "name": "name",
      "outputs": [
        {
          "internalType": "string",
          "name": "",
          "type": "string"
        }
      ],
      "stateMutability": "view",
      "type": "function",
      "constant": true
    },
    {
      "inputs": [],
      "name": "notRevealedUri",
      "outputs": [
        {
          "internalType": "string",
          "name": "",
          "type": "string"
        }
      ],
      "stateMutability": "view",
      "type": "function",
      "constant": true
    },
    {
      "inputs": [],
      "name": "owner",
      "outputs": [
        {
          "internalType": "address",
          "name": "",
          "type": "address"
        }
      ],
      "stateMutability": "view",
      "type": "function",
      "constant": true
    },
    {
      "inputs": [
        {
          "internalType": "uint256",
          "name": "tokenId",
          "type": "uint256"
        }
      ],
      "name": "ownerOf",
      "outputs": [
        {
          "internalType": "address",
          "name": "",
          "type": "address"
        }
      ],
      "stateMutability": "view",
      "type": "function",
      "constant": true
    },
    {
      "inputs": [],
      "name": "renounceOwnership",
      "outputs": [],
      "stateMutability": "nonpayable",
      "type": "function"
    },
    {
      "inputs": [],
      "name": "royalityFee",
      "outputs": [
        {
          "internalType": "uint256",
          "name": "",
          "type": "uint256"
        }
      ],
      "stateMutability": "view",
      "type": "function",
      "constant": true
    },
    {
      "inputs": [
        {
          "internalType": "address",
          "name": "from",
          "type": "address"
        },
        {
          "internalType": "address",
          "name": "to",
          "type": "address"
        },
        {
          "internalType": "uint256",
          "name": "tokenId",
          "type": "uint256"
        }
      ],
      "name": "safeTransferFrom",
      "outputs": [],
      "stateMutability": "nonpayable",
      "type": "function"
    },
    {
      "inputs": [
        {
          "internalType": "address",
          "name": "from",
          "type": "address"
        },
        {
          "internalType": "address",
          "name": "to",
          "type": "address"
        },
        {
          "internalType": "uint256",
          "name": "tokenId",
          "type": "uint256"
        },
        {
          "internalType": "bytes",
          "name": "data",
          "type": "bytes"
        }
      ],
      "name": "safeTransferFrom",
      "outputs": [],
      "stateMutability": "nonpayable",
      "type": "function"
    },
    {
      "inputs": [
        {
          "internalType": "address",
          "name": "operator",
          "type": "address"
        },
        {
          "internalType": "bool",
          "name": "approved",
          "type": "bool"
        }
      ],
      "name": "setApprovalForAll",
      "outputs": [],
      "stateMutability": "nonpayable",
      "type": "function"
    },
    {
      "inputs": [
        {
          "internalType": "bytes4",
          "name": "interfaceId",
          "type": "bytes4"
        }
      ],
      "name": "supportsInterface",
      "outputs": [
        {
          "internalType": "bool",
          "name": "",
          "type": "bool"
        }
      ],
      "stateMutability": "view",
      "type": "function",
      "constant": true
    },
    {
      "inputs": [],
      "name": "symbol",
      "outputs": [
        {
          "internalType": "string",
          "name": "",
          "type": "string"
        }
      ],
      "stateMutability": "view",
      "type": "function",
      "constant": true
    },
    {
      "inputs": [],
      "name": "timeDeployed",
      "outputs": [
        {
          "internalType": "uint256",
          "name": "",
          "type": "uint256"
        }
      ],
      "stateMutability": "view",
      "type": "function",
      "constant": true
    },
    {
      "inputs": [
        {
          "internalType": "uint256",
          "name": "index",
          "type": "uint256"
        }
      ],
      "name": "tokenByIndex",
      "outputs": [
        {
          "internalType": "uint256",
          "name": "",
          "type": "uint256"
        }
      ],
      "stateMutability": "view",
      "type": "function",
      "constant": true
    },
    {
      "inputs": [
        {
          "internalType": "address",
          "name": "owner",
          "type": "address"
        },
        {
          "internalType": "uint256",
          "name": "index",
          "type": "uint256"
        }
      ],
      "name": "tokenOfOwnerByIndex",
      "outputs": [
        {
          "internalType": "uint256",
          "name": "",
          "type": "uint256"
        }
      ],
      "stateMutability": "view",
      "type": "function",
      "constant": true
    },
    {
      "inputs": [],
      "name": "totalSupply",
      "outputs": [
        {
          "internalType": "uint256",
          "name": "",
          "type": "uint256"
        }
      ],
      "stateMutability": "view",
      "type": "function",
      "constant": true
    },
    {
      "inputs": [
        {
          "internalType": "address",
          "name": "from",
          "type": "address"
        },
        {
          "internalType": "address",
          "name": "to",
          "type": "address"
        },
        {
          "internalType": "uint256",
          "name": "tokenId",
          "type": "uint256"
        }
      ],
      "name": "transferFrom",
      "outputs": [],
      "stateMutability": "nonpayable",
      "type": "function"
    },
    {
      "inputs": [
        {
          "internalType": "address",
          "name": "newOwner",
          "type": "address"
        }
      ],
      "name": "transferOwnership",
      "outputs": [],
      "stateMutability": "nonpayable",
      "type": "function"
    },
    {
      "inputs": [
        {
          "internalType": "uint256",
          "name": "_mintAmount",
          "type": "uint256"
        }
      ],
      "name": "mint",
      "outputs": [],
      "stateMutability": "payable",
      "type": "function",
      "payable": true
    },
    {
      "inputs": [
        {
          "internalType": "address",
          "name": "_owner",
          "type": "address"
        }
      ],
      "name": "walletOfOwner",
      "outputs": [
        {
          "internalType": "uint256[]",
          "name": "",
          "type": "uint256[]"
        }
      ],
      "stateMutability": "view",
      "type": "function",
      "constant": true
    },
    {
      "inputs": [
        {
          "internalType": "uint256",
          "name": "tokenId",
          "type": "uint256"
        }
      ],
      "name": "tokenURI",
      "outputs": [
        {
          "internalType": "string",
          "name": "",
          "type": "string"
        }
      ],
      "stateMutability": "view",
      "type": "function",
      "constant": true
    },
    {
      "inputs": [],
      "name": "getSecondsUntilMinting",
      "outputs": [
        {
          "internalType": "uint256",
          "name": "",
          "type": "uint256"
        }
      ],
      "stateMutability": "view",
      "type": "function",
      "constant": true
    },
    {
      "inputs": [
        {
          "internalType": "bool",
          "name": "_state",
          "type": "bool"
        }
      ],
      "name": "setIsRevealed",
      "outputs": [],
      "stateMutability": "nonpayable",
      "type": "function"
    },
    {
      "inputs": [
        {
          "internalType": "uint256",
          "name": "_newCost",
          "type": "uint256"
        }
      ],
      "name": "setCost",
      "outputs": [],
      "stateMutability": "nonpayable",
      "type": "function"
    },
    {
      "inputs": [
        {
          "internalType": "uint256",
          "name": "_newmaxMintAmount",
          "type": "uint256"
        }
      ],
      "name": "setmaxMintAmount",
      "outputs": [],
      "stateMutability": "nonpayable",
      "type": "function"
    },
    {
      "inputs": [
        {
          "internalType": "string",
          "name": "_notRevealedURI",
          "type": "string"
        }
      ],
      "name": "setNotRevealedURI",
      "outputs": [],
      "stateMutability": "nonpayable",
      "type": "function"
    },
    {
      "inputs": [
        {
          "internalType": "string",
          "name": "_newBaseURI",
          "type": "string"
        }
      ],
      "name": "setBaseURI",
      "outputs": [],
      "stateMutability": "nonpayable",
      "type": "function"
    },
    {
      "inputs": [
        {
          "internalType": "string",
          "name": "_newBaseExtension",
          "type": "string"
        }
      ],
      "name": "setBaseExtension",
      "outputs": [],
      "stateMutability": "nonpayable",
      "type": "function"
    },
    {
      "inputs": [
        {
          "internalType": "bool",
          "name": "_state",
          "type": "bool"
        }
      ],
      "name": "setIsPaused",
      "outputs": [],
      "stateMutability": "nonpayable",
      "type": "function"
    },
    {
      "inputs": [],
      "name": "withdraw",
      "outputs": [],
      "stateMutability": "payable",
      "type": "function",
      "payable": true
    },
    {
      "inputs": [
        {
          "internalType": "uint256",
          "name": "_royalityFee",
          "type": "uint256"
        }
      ],
      "name": "setRoyalityFee",
      "outputs": [],
      "stateMutability": "nonpayable",
      "type": "function"
    }
  ],
  "bytecode": "0x60806040526040518060400160405280600581526020017f2e6a736f6e000000000000000000000000000000000000000000000000000000815250600c908051906020019062000051929190620003a8565b506001600f5560006011556000601260006101000a81548160ff0219169083151502179055506001601260016101000a81548160ff0219169083151502179055503480156200009f57600080fd5b5060405162005150380380620051508339818101604052810190620000c5919062000695565b88888160009080519060200190620000df929190620003a8565b508060019080519060200190620000f8929190620003a8565b5050506200011b6200010f620001c760201b60201c565b620001cf60201b60201c565b42851115620001395742856200013291906200081f565b6011819055505b86600d8190555085600e81905550426010819055508160158190555080601460006101000a81548173ffffffffffffffffffffffffffffffffffffffff021916908373ffffffffffffffffffffffffffffffffffffffff160217905550620001a7846200029560201b60201c565b620001b883620002c160201b60201c565b50505050505050505062000942565b600033905090565b6000600a60009054906101000a900473ffffffffffffffffffffffffffffffffffffffff16905081600a60006101000a81548173ffffffffffffffffffffffffffffffffffffffff021916908373ffffffffffffffffffffffffffffffffffffffff1602179055508173ffffffffffffffffffffffffffffffffffffffff168173ffffffffffffffffffffffffffffffffffffffff167f8be0079c531659141344cd1fd0a4f28419497f9722a3daafe3b4186f6b6457e060405160405180910390a35050565b620002a5620002ed60201b60201c565b80600b9080519060200190620002bd929190620003a8565b5050565b620002d1620002ed60201b60201c565b8060139080519060200190620002e9929190620003a8565b5050565b620002fd620001c760201b60201c565b73ffffffffffffffffffffffffffffffffffffffff16620003236200037e60201b60201c565b73ffffffffffffffffffffffffffffffffffffffff16146200037c576040517f08c379a00000000000000000000000000000000000000000000000000000000081526004016200037390620008bb565b60405180910390fd5b565b6000600a60009054906101000a900473ffffffffffffffffffffffffffffffffffffffff16905090565b828054620003b6906200090c565b90600052602060002090601f016020900481019282620003da576000855562000426565b82601f10620003f557805160ff191683800117855562000426565b8280016001018555821562000426579182015b828111156200042557825182559160200191906001019062000408565b5b50905062000435919062000439565b5090565b5b80821115620004545760008160009055506001016200043a565b5090565b6000604051905090565b600080fd5b600080fd5b600080fd5b600080fd5b6000601f19601f8301169050919050565b7f4e487b7100000000000000000000000000000000000000000000000000000000600052604160045260246000fd5b620004c18262000476565b810181811067ffffffffffffffff82111715620004e357620004e262000487565b5b80604052505050565b6000620004f862000458565b9050620005068282620004b6565b919050565b600067ffffffffffffffff82111562000529576200052862000487565b5b620005348262000476565b9050602081019050919050565b60005b838110156200056157808201518184015260208101905062000544565b8381111562000571576000848401525b50505050565b60006200058e62000588846200050b565b620004ec565b905082815260208101848484011115620005ad57620005ac62000471565b5b620005ba84828562000541565b509392505050565b600082601f830112620005da57620005d96200046c565b5b8151620005ec84826020860162000577565b91505092915050565b6000819050919050565b6200060a81620005f5565b81146200061657600080fd5b50565b6000815190506200062a81620005ff565b92915050565b600073ffffffffffffffffffffffffffffffffffffffff82169050919050565b60006200065d8262000630565b9050919050565b6200066f8162000650565b81146200067b57600080fd5b50565b6000815190506200068f8162000664565b92915050565b60008060008060008060008060006101208a8c031215620006bb57620006ba62000462565b5b60008a015167ffffffffffffffff811115620006dc57620006db62000467565b5b620006ea8c828d01620005c2565b99505060208a015167ffffffffffffffff8111156200070e576200070d62000467565b5b6200071c8c828d01620005c2565b98505060406200072f8c828d0162000619565b9750506060620007428c828d0162000619565b9650506080620007558c828d0162000619565b95505060a08a015167ffffffffffffffff81111562000779576200077862000467565b5b620007878c828d01620005c2565b94505060c08a015167ffffffffffffffff811115620007ab57620007aa62000467565b5b620007b98c828d01620005c2565b93505060e0620007cc8c828d0162000619565b925050610100620007e08c828d016200067e565b9150509295985092959850929598565b7f4e487b7100000000000000000000000000000000000000000000000000000000600052601160045260246000fd5b60006200082c82620005f5565b91506200083983620005f5565b9250828210156200084f576200084e620007f0565b5b828203905092915050565b600082825260208201905092915050565b7f4f776e61626c653a2063616c6c6572206973206e6f7420746865206f776e6572600082015250565b6000620008a36020836200085a565b9150620008b0826200086b565b602082019050919050565b60006020820190508181036000830152620008d68162000894565b9050919050565b7f4e487b7100000000000000000000000000000000000000000000000000000000600052602260045260246000fd5b600060028204905060018216806200092557607f821691505b602082108114156200093c576200093b620008dd565b5b50919050565b6147fe80620009526000396000f3fe6080604052600436106102515760003560e01c806355f804b311610139578063a22cb465116100b6578063c87b56dd1161007a578063c87b56dd14610886578063d5abeb01146108c3578063da3ef23f146108ee578063e985e9c514610917578063f2c4ce1e14610954578063f2fde38b1461097d57610251565b8063a22cb465146107b3578063a75052cb146107dc578063b187bd2614610807578063b88d4fde14610832578063c66828621461085b57610251565b8063872bdcdb116100fd578063872bdcdb146106ed5780638da5cb5b1461071857806395d89b411461074357806398f246821461076e578063a0712d681461079757610251565b806355f804b31461060a5780636352211e1461063357806370a0823114610670578063715018a6146106ad5780637f00c7a6146106c457610251565b8063240976bf116101d2578063438b630011610196578063438b6300146104e857806343bc16121461052557806344a0d68a1461055057806349a5980a146105795780634f6ccce7146105a257806354214f69146105df57610251565b8063240976bf146104245780632f745c591461044d578063326bb4ad1461048a5780633ccfd60b146104b557806342842e0e146104bf57610251565b806313faede61161021957806313faede61461034f57806318160ddd1461037a57806319188c35146103a5578063239c70ae146103d057806323b872dd146103fb57610251565b806301ffc9a71461025657806306fdde0314610293578063081812fc146102be578063081c8c44146102fb578063095ea7b314610326575b600080fd5b34801561026257600080fd5b5061027d60048036038101906102789190613140565b6109a6565b60405161028a9190613188565b60405180910390f35b34801561029f57600080fd5b506102a8610a20565b6040516102b5919061323c565b60405180910390f35b3480156102ca57600080fd5b506102e560048036038101906102e09190613294565b610ab2565b6040516102f29190613302565b60405180910390f35b34801561030757600080fd5b50610310610af8565b60405161031d919061323c565b60405180910390f35b34801561033257600080fd5b5061034d60048036038101906103489190613349565b610b86565b005b34801561035b57600080fd5b50610364610c9e565b6040516103719190613398565b60405180910390f35b34801561038657600080fd5b5061038f610ca4565b60405161039c9190613398565b60405180910390f35b3480156103b157600080fd5b506103ba610cb1565b6040516103c79190613398565b60405180910390f35b3480156103dc57600080fd5b506103e5610cb7565b6040516103f29190613398565b60405180910390f35b34801561040757600080fd5b50610422600480360381019061041d91906133b3565b610cbd565b005b34801561043057600080fd5b5061044b60048036038101906104469190613432565b610d1d565b005b34801561045957600080fd5b50610474600480360381019061046f9190613349565b610d42565b6040516104819190613398565b60405180910390f35b34801561049657600080fd5b5061049f610de7565b6040516104ac9190613398565b60405180910390f35b6104bd610ded565b005b3480156104cb57600080fd5b506104e660048036038101906104e191906133b3565b610e6e565b005b3480156104f457600080fd5b5061050f600480360381019061050a919061345f565b610e8e565b60405161051c919061354a565b60405180910390f35b34801561053157600080fd5b5061053a610f3c565b6040516105479190613302565b60405180910390f35b34801561055c57600080fd5b5061057760048036038101906105729190613294565b610f62565b005b34801561058557600080fd5b506105a0600480360381019061059b9190613432565b610f74565b005b3480156105ae57600080fd5b506105c960048036038101906105c49190613294565b610f99565b6040516105d69190613398565b60405180910390f35b3480156105eb57600080fd5b506105f461100a565b6040516106019190613188565b60405180910390f35b34801561061657600080fd5b50610631600480360381019061062c91906136a1565b61101d565b005b34801561063f57600080fd5b5061065a60048036038101906106559190613294565b61103f565b6040516106679190613302565b60405180910390f35b34801561067c57600080fd5b506106976004803603810190610692919061345f565b6110c6565b6040516106a49190613398565b60405180910390f35b3480156106b957600080fd5b506106c261117e565b005b3480156106d057600080fd5b506106eb60048036038101906106e69190613294565b611192565b005b3480156106f957600080fd5b506107026111a4565b60405161070f9190613398565b60405180910390f35b34801561072457600080fd5b5061072d6111aa565b60405161073a9190613302565b60405180910390f35b34801561074f57600080fd5b506107586111d4565b604051610765919061323c565b60405180910390f35b34801561077a57600080fd5b5061079560048036038101906107909190613294565b611266565b005b6107b160048036038101906107ac9190613294565b611278565b005b3480156107bf57600080fd5b506107da60048036038101906107d591906136ea565b6113ec565b005b3480156107e857600080fd5b506107f1611402565b6040516107fe9190613398565b60405180910390f35b34801561081357600080fd5b5061081c611445565b6040516108299190613188565b60405180910390f35b34801561083e57600080fd5b50610859600480360381019061085491906137cb565b611458565b005b34801561086757600080fd5b506108706114ba565b60405161087d919061323c565b60405180910390f35b34801561089257600080fd5b506108ad60048036038101906108a89190613294565b611548565b6040516108ba919061323c565b60405180910390f35b3480156108cf57600080fd5b506108d86116a1565b6040516108e59190613398565b60405180910390f35b3480156108fa57600080fd5b50610915600480360381019061091091906136a1565b6116a7565b005b34801561092357600080fd5b5061093e6004803603810190610939919061384e565b6116c9565b60405161094b9190613188565b60405180910390f35b34801561096057600080fd5b5061097b600480360381019061097691906136a1565b61175d565b005b34801561098957600080fd5b506109a4600480360381019061099f919061345f565b61177f565b005b60007f780e9d63000000000000000000000000000000000000000000000000000000007bffffffffffffffffffffffffffffffffffffffffffffffffffffffff1916827bffffffffffffffffffffffffffffffffffffffffffffffffffffffff19161480610a195750610a1882611803565b5b9050919050565b606060008054610a2f906138bd565b80601f0160208091040260200160405190810160405280929190818152602001828054610a5b906138bd565b8015610aa85780601f10610a7d57610100808354040283529160200191610aa8565b820191906000526020600020905b815481529060010190602001808311610a8b57829003601f168201915b5050505050905090565b6000610abd826118e5565b6004600083815260200190815260200160002060009054906101000a900473ffffffffffffffffffffffffffffffffffffffff169050919050565b60138054610b05906138bd565b80601f0160208091040260200160405190810160405280929190818152602001828054610b31906138bd565b8015610b7e5780601f10610b5357610100808354040283529160200191610b7e565b820191906000526020600020905b815481529060010190602001808311610b6157829003601f168201915b505050505081565b6000610b918261103f565b90508073ffffffffffffffffffffffffffffffffffffffff168373ffffffffffffffffffffffffffffffffffffffff161415610c02576040517f08c379a0000000000000000000000000000000000000000000000000000000008152600401610bf990613961565b60405180910390fd5b8073ffffffffffffffffffffffffffffffffffffffff16610c21611930565b73ffffffffffffffffffffffffffffffffffffffff161480610c505750610c4f81610c4a611930565b6116c9565b5b610c8f576040517f08c379a0000000000000000000000000000000000000000000000000000000008152600401610c86906139f3565b60405180910390fd5b610c998383611938565b505050565b600d5481565b6000600880549050905090565b60105481565b600f5481565b610cce610cc8611930565b826119f1565b610d0d576040517f08c379a0000000000000000000000000000000000000000000000000000000008152600401610d0490613a85565b60405180910390fd5b610d18838383611a86565b505050565b610d25611bd5565b80601260006101000a81548160ff02191690831515021790555050565b6000610d4d836110c6565b8210610d8e576040517f08c379a0000000000000000000000000000000000000000000000000000000008152600401610d8590613b17565b60405180910390fd5b600660008473ffffffffffffffffffffffffffffffffffffffff1673ffffffffffffffffffffffffffffffffffffffff168152602001908152602001600020600083815260200190815260200160002054905092915050565b60155481565b610df5611bd5565b60003373ffffffffffffffffffffffffffffffffffffffff1647604051610e1b90613b68565b60006040518083038185875af1925050503d8060008114610e58576040519150601f19603f3d011682016040523d82523d6000602084013e610e5d565b606091505b5050905080610e6b57600080fd5b50565b610e8983838360405180602001604052806000815250611458565b505050565b60606000610e9b836110c6565b905060008167ffffffffffffffff811115610eb957610eb8613576565b5b604051908082528060200260200182016040528015610ee75781602001602082028036833780820191505090505b50905060005b82811015610f3157610eff8582610d42565b828281518110610f1257610f11613b7d565b5b6020026020010181815250508080610f2990613bdb565b915050610eed565b508092505050919050565b601460009054906101000a900473ffffffffffffffffffffffffffffffffffffffff1681565b610f6a611bd5565b80600d8190555050565b610f7c611bd5565b80601260016101000a81548160ff02191690831515021790555050565b6000610fa3610ca4565b8210610fe4576040517f08c379a0000000000000000000000000000000000000000000000000000000008152600401610fdb90613c96565b60405180910390fd5b60088281548110610ff857610ff7613b7d565b5b90600052602060002001549050919050565b601260019054906101000a900460ff1681565b611025611bd5565b80600b908051906020019061103b929190613031565b5050565b60008061104b83611c53565b9050600073ffffffffffffffffffffffffffffffffffffffff168173ffffffffffffffffffffffffffffffffffffffff1614156110bd576040517f08c379a00000000000000000000000000000000000000000000000000000000081526004016110b490613d02565b60405180910390fd5b80915050919050565b60008073ffffffffffffffffffffffffffffffffffffffff168273ffffffffffffffffffffffffffffffffffffffff161415611137576040517f08c379a000000000000000000000000000000000000000000000000000000000815260040161112e90613d94565b60405180910390fd5b600360008373ffffffffffffffffffffffffffffffffffffffff1673ffffffffffffffffffffffffffffffffffffffff168152602001908152602001600020549050919050565b611186611bd5565b6111906000611c90565b565b61119a611bd5565b80600f8190555050565b60115481565b6000600a60009054906101000a900473ffffffffffffffffffffffffffffffffffffffff16905090565b6060600180546111e3906138bd565b80601f016020809104026020016040519081016040528092919081815260200182805461120f906138bd565b801561125c5780601f106112315761010080835404028352916020019161125c565b820191906000526020600020905b81548152906001019060200180831161123f57829003601f168201915b5050505050905090565b61126e611bd5565b8060158190555050565b6011546010546112889190613db4565b4210156112ca576040517f08c379a00000000000000000000000000000000000000000000000000000000081526004016112c190613e56565b60405180910390fd5b60006112d4610ca4565b9050601260009054906101000a900460ff16156112f057600080fd5b600082116112fd57600080fd5b600f5482111561130c57600080fd5b600e54828261131b9190613db4565b111561132657600080fd5b61132e6111aa565b73ffffffffffffffffffffffffffffffffffffffff163373ffffffffffffffffffffffffffffffffffffffff16146113b15781600d5461136e9190613e76565b3410156113b0576040517f08c379a00000000000000000000000000000000000000000000000000000000081526004016113a790613f1c565b60405180910390fd5b5b6000600190505b8281116113e7576113d43382846113cf9190613db4565b611d56565b80806113df90613bdb565b9150506113b8565b505050565b6113fe6113f7611930565b8383611d74565b5050565b60006011546010546114149190613db4565b42101561143d574260115460105461142c9190613db4565b6114369190613f3c565b9050611442565b600090505b90565b601260009054906101000a900460ff1681565b611469611463611930565b836119f1565b6114a8576040517f08c379a000000000000000000000000000000000000000000000000000000000815260040161149f90613a85565b60405180910390fd5b6114b484848484611ee1565b50505050565b600c80546114c7906138bd565b80601f01602080910402602001604051908101604052809291908181526020018280546114f3906138bd565b80156115405780601f1061151557610100808354040283529160200191611540565b820191906000526020600020905b81548152906001019060200180831161152357829003601f168201915b505050505081565b606061155382612032565b611592576040517f08c379a000000000000000000000000000000000000000000000000000000000815260040161158990613fe2565b60405180910390fd5b60001515601260019054906101000a900460ff161515141561164057601380546115bb906138bd565b80601f01602080910402602001604051908101604052809291908181526020018280546115e7906138bd565b80156116345780601f1061160957610100808354040283529160200191611634565b820191906000526020600020905b81548152906001019060200180831161161757829003601f168201915b5050505050905061169c565b600061164a612073565b9050600081511161166a5760405180602001604052806000815250611698565b8061167484612105565b600c604051602001611688939291906140d2565b6040516020818303038152906040525b9150505b919050565b600e5481565b6116af611bd5565b80600c90805190602001906116c5929190613031565b5050565b6000600560008473ffffffffffffffffffffffffffffffffffffffff1673ffffffffffffffffffffffffffffffffffffffff16815260200190815260200160002060008373ffffffffffffffffffffffffffffffffffffffff1673ffffffffffffffffffffffffffffffffffffffff16815260200190815260200160002060009054906101000a900460ff16905092915050565b611765611bd5565b806013908051906020019061177b929190613031565b5050565b611787611bd5565b600073ffffffffffffffffffffffffffffffffffffffff168173ffffffffffffffffffffffffffffffffffffffff1614156117f7576040517f08c379a00000000000000000000000000000000000000000000000000000000081526004016117ee90614175565b60405180910390fd5b61180081611c90565b50565b60007f80ac58cd000000000000000000000000000000000000000000000000000000007bffffffffffffffffffffffffffffffffffffffffffffffffffffffff1916827bffffffffffffffffffffffffffffffffffffffffffffffffffffffff191614806118ce57507f5b5e139f000000000000000000000000000000000000000000000000000000007bffffffffffffffffffffffffffffffffffffffffffffffffffffffff1916827bffffffffffffffffffffffffffffffffffffffffffffffffffffffff1916145b806118de57506118dd826121dd565b5b9050919050565b6118ee81612032565b61192d576040517f08c379a000000000000000000000000000000000000000000000000000000000815260040161192490613d02565b60405180910390fd5b50565b600033905090565b816004600083815260200190815260200160002060006101000a81548173ffffffffffffffffffffffffffffffffffffffff021916908373ffffffffffffffffffffffffffffffffffffffff160217905550808273ffffffffffffffffffffffffffffffffffffffff166119ab8361103f565b73ffffffffffffffffffffffffffffffffffffffff167f8c5be1e5ebec7d5bd14f71427d1e84f3dd0314c0f7b2291e5b200ac8c7c3b92560405160405180910390a45050565b6000806119fd8361103f565b90508073ffffffffffffffffffffffffffffffffffffffff168473ffffffffffffffffffffffffffffffffffffffff161480611a3f5750611a3e81856116c9565b5b80611a7d57508373ffffffffffffffffffffffffffffffffffffffff16611a6584610ab2565b73ffffffffffffffffffffffffffffffffffffffff16145b91505092915050565b611a97611a91611930565b826119f1565b611ad6576040517f08c379a0000000000000000000000000000000000000000000000000000000008152600401611acd90614207565b60405180910390fd5b6000341115611bc5576000606460155434611af19190613e76565b611afb9190614256565b9050611b0681612247565b60008473ffffffffffffffffffffffffffffffffffffffff168234611b2b9190613f3c565b604051611b3790613b68565b60006040518083038185875af1925050503d8060008114611b74576040519150601f19603f3d011682016040523d82523d6000602084013e611b79565b606091505b5050905080611b8757600080fd5b7f3f3483d0995db4c081e0101ef6753bef457833c20605cd871de61dcb48085a9a858534604051611bba93929190614287565b60405180910390a150505b611bd08383836122e3565b505050565b611bdd611930565b73ffffffffffffffffffffffffffffffffffffffff16611bfb6111aa565b73ffffffffffffffffffffffffffffffffffffffff1614611c51576040517f08c379a0000000000000000000000000000000000000000000000000000000008152600401611c489061430a565b60405180910390fd5b565b60006002600083815260200190815260200160002060009054906101000a900473ffffffffffffffffffffffffffffffffffffffff169050919050565b6000600a60009054906101000a900473ffffffffffffffffffffffffffffffffffffffff16905081600a60006101000a81548173ffffffffffffffffffffffffffffffffffffffff021916908373ffffffffffffffffffffffffffffffffffffffff1602179055508173ffffffffffffffffffffffffffffffffffffffff168173ffffffffffffffffffffffffffffffffffffffff167f8be0079c531659141344cd1fd0a4f28419497f9722a3daafe3b4186f6b6457e060405160405180910390a35050565b611d708282604051806020016040528060008152506125dd565b5050565b8173ffffffffffffffffffffffffffffffffffffffff168373ffffffffffffffffffffffffffffffffffffffff161415611de3576040517f08c379a0000000000000000000000000000000000000000000000000000000008152600401611dda90614376565b60405180910390fd5b80600560008573ffffffffffffffffffffffffffffffffffffffff1673ffffffffffffffffffffffffffffffffffffffff16815260200190815260200160002060008473ffffffffffffffffffffffffffffffffffffffff1673ffffffffffffffffffffffffffffffffffffffff16815260200190815260200160002060006101000a81548160ff0219169083151502179055508173ffffffffffffffffffffffffffffffffffffffff168373ffffffffffffffffffffffffffffffffffffffff167f17307eab39ab6107e8899845ad3d59bd9653f200f220920489ca2b5937696c3183604051611ed49190613188565b60405180910390a3505050565b611ef2611eec611930565b836119f1565b611f31576040517f08c379a0000000000000000000000000000000000000000000000000000000008152600401611f2890614207565b60405180910390fd5b6000341115612020576000606460155434611f4c9190613e76565b611f569190614256565b9050611f6181612247565b60008573ffffffffffffffffffffffffffffffffffffffff168234611f869190613f3c565b604051611f9290613b68565b60006040518083038185875af1925050503d8060008114611fcf576040519150601f19603f3d011682016040523d82523d6000602084013e611fd4565b606091505b5050905080611fe257600080fd5b7f3f3483d0995db4c081e0101ef6753bef457833c20605cd871de61dcb48085a9a86863460405161201593929190614287565b60405180910390a150505b61202c84848484612638565b50505050565b60008073ffffffffffffffffffffffffffffffffffffffff1661205483611c53565b73ffffffffffffffffffffffffffffffffffffffff1614159050919050565b6060600b8054612082906138bd565b80601f01602080910402602001604051908101604052809291908181526020018280546120ae906138bd565b80156120fb5780601f106120d0576101008083540402835291602001916120fb565b820191906000526020600020905b8154815290600101906020018083116120de57829003601f168201915b5050505050905090565b60606000600161211484612694565b01905060008167ffffffffffffffff81111561213357612132613576565b5b6040519080825280601f01601f1916602001820160405280156121655781602001600182028036833780820191505090505b509050600082602001820190505b6001156121d2578080600190039150507f3031323334353637383961626364656600000000000000000000000000000000600a86061a8153600a85816121bc576121bb614227565b5b04945060008514156121cd576121d2565b612173565b819350505050919050565b60007f01ffc9a7000000000000000000000000000000000000000000000000000000007bffffffffffffffffffffffffffffffffffffffffffffffffffffffff1916827bffffffffffffffffffffffffffffffffffffffffffffffffffffffff1916149050919050565b6000601460009054906101000a900473ffffffffffffffffffffffffffffffffffffffff1673ffffffffffffffffffffffffffffffffffffffff168260405161228f90613b68565b60006040518083038185875af1925050503d80600081146122cc576040519150601f19603f3d011682016040523d82523d6000602084013e6122d1565b606091505b50509050806122df57600080fd5b5050565b8273ffffffffffffffffffffffffffffffffffffffff166123038261103f565b73ffffffffffffffffffffffffffffffffffffffff1614612359576040517f08c379a000000000000000000000000000000000000000000000000000000000815260040161235090614408565b60405180910390fd5b600073ffffffffffffffffffffffffffffffffffffffff168273ffffffffffffffffffffffffffffffffffffffff1614156123c9576040517f08c379a00000000000000000000000000000000000000000000000000000000081526004016123c09061449a565b60405180910390fd5b6123d683838360016127e7565b8273ffffffffffffffffffffffffffffffffffffffff166123f68261103f565b73ffffffffffffffffffffffffffffffffffffffff161461244c576040517f08c379a000000000000000000000000000000000000000000000000000000000815260040161244390614408565b60405180910390fd5b6004600082815260200190815260200160002060006101000a81549073ffffffffffffffffffffffffffffffffffffffff02191690556001600360008573ffffffffffffffffffffffffffffffffffffffff1673ffffffffffffffffffffffffffffffffffffffff168152602001908152602001600020600082825403925050819055506001600360008473ffffffffffffffffffffffffffffffffffffffff1673ffffffffffffffffffffffffffffffffffffffff16815260200190815260200160002060008282540192505081905550816002600083815260200190815260200160002060006101000a81548173ffffffffffffffffffffffffffffffffffffffff021916908373ffffffffffffffffffffffffffffffffffffffff160217905550808273ffffffffffffffffffffffffffffffffffffffff168473ffffffffffffffffffffffffffffffffffffffff167fddf252ad1be2c89b69c2b068fc378daa952ba7f163c4a11628f55a4df523b3ef60405160405180910390a46125d88383836001612947565b505050565b6125e7838361294d565b6125f46000848484612b6b565b612633576040517f08c379a000000000000000000000000000000000000000000000000000000000815260040161262a9061452c565b60405180910390fd5b505050565b612643848484611a86565b61264f84848484612b6b565b61268e576040517f08c379a00000000000000000000000000000000000000000000000000000000081526004016126859061452c565b60405180910390fd5b50505050565b600080600090507a184f03e93ff9f4daa797ed6e38ed64bf6a1f01000000000000000083106126f2577a184f03e93ff9f4daa797ed6e38ed64bf6a1f01000000000000000083816126e8576126e7614227565b5b0492506040810190505b6d04ee2d6d415b85acef8100000000831061272f576d04ee2d6d415b85acef8100000000838161272557612724614227565b5b0492506020810190505b662386f26fc10000831061275e57662386f26fc10000838161275457612753614227565b5b0492506010810190505b6305f5e1008310612787576305f5e100838161277d5761277c614227565b5b0492506008810190505b61271083106127ac5761271083816127a2576127a1614227565b5b0492506004810190505b606483106127cf57606483816127c5576127c4614227565b5b0492506002810190505b600a83106127de576001810190505b80915050919050565b6127f384848484612d02565b6001811115612837576040517f08c379a000000000000000000000000000000000000000000000000000000000815260040161282e906145be565b60405180910390fd5b6000829050600073ffffffffffffffffffffffffffffffffffffffff168573ffffffffffffffffffffffffffffffffffffffff16141561287f5761287a81612d08565b6128be565b8373ffffffffffffffffffffffffffffffffffffffff168573ffffffffffffffffffffffffffffffffffffffff16146128bd576128bc8582612d51565b5b5b600073ffffffffffffffffffffffffffffffffffffffff168473ffffffffffffffffffffffffffffffffffffffff161415612901576128fc81612ebe565b612940565b8473ffffffffffffffffffffffffffffffffffffffff168473ffffffffffffffffffffffffffffffffffffffff161461293f5761293e8482612f8f565b5b5b5050505050565b50505050565b600073ffffffffffffffffffffffffffffffffffffffff168273ffffffffffffffffffffffffffffffffffffffff1614156129bd576040517f08c379a00000000000000000000000000000000000000000000000000000000081526004016129b49061462a565b60405180910390fd5b6129c681612032565b15612a06576040517f08c379a00000000000000000000000000000000000000000000000000000000081526004016129fd90614696565b60405180910390fd5b612a146000838360016127e7565b612a1d81612032565b15612a5d576040517f08c379a0000000000000000000000000000000000000000000000000000000008152600401612a5490614696565b60405180910390fd5b6001600360008473ffffffffffffffffffffffffffffffffffffffff1673ffffffffffffffffffffffffffffffffffffffff16815260200190815260200160002060008282540192505081905550816002600083815260200190815260200160002060006101000a81548173ffffffffffffffffffffffffffffffffffffffff021916908373ffffffffffffffffffffffffffffffffffffffff160217905550808273ffffffffffffffffffffffffffffffffffffffff16600073ffffffffffffffffffffffffffffffffffffffff167fddf252ad1be2c89b69c2b068fc378daa952ba7f163c4a11628f55a4df523b3ef60405160405180910390a4612b67600083836001612947565b5050565b6000612b8c8473ffffffffffffffffffffffffffffffffffffffff1661300e565b15612cf5578373ffffffffffffffffffffffffffffffffffffffff1663150b7a02612bb5611930565b8786866040518563ffffffff1660e01b8152600401612bd7949392919061470b565b602060405180830381600087803b158015612bf157600080fd5b505af1925050508015612c2257506040513d601f19601f82011682018060405250810190612c1f919061476c565b60015b612ca5573d8060008114612c52576040519150601f19603f3d011682016040523d82523d6000602084013e612c57565b606091505b50600081511415612c9d576040517f08c379a0000000000000000000000000000000000000000000000000000000008152600401612c949061452c565b60405180910390fd5b805181602001fd5b63150b7a0260e01b7bffffffffffffffffffffffffffffffffffffffffffffffffffffffff1916817bffffffffffffffffffffffffffffffffffffffffffffffffffffffff191614915050612cfa565b600190505b949350505050565b50505050565b6008805490506009600083815260200190815260200160002081905550600881908060018154018082558091505060019003906000526020600020016000909190919091505550565b60006001612d5e846110c6565b612d689190613f3c565b9050600060076000848152602001908152602001600020549050818114612e4d576000600660008673ffffffffffffffffffffffffffffffffffffffff1673ffffffffffffffffffffffffffffffffffffffff168152602001908152602001600020600084815260200190815260200160002054905080600660008773ffffffffffffffffffffffffffffffffffffffff1673ffffffffffffffffffffffffffffffffffffffff168152602001908152602001600020600084815260200190815260200160002081905550816007600083815260200190815260200160002081905550505b6007600084815260200190815260200160002060009055600660008573ffffffffffffffffffffffffffffffffffffffff1673ffffffffffffffffffffffffffffffffffffffff16815260200190815260200160002060008381526020019081526020016000206000905550505050565b60006001600880549050612ed29190613f3c565b9050600060096000848152602001908152602001600020549050600060088381548110612f0257612f01613b7d565b5b906000526020600020015490508060088381548110612f2457612f23613b7d565b5b906000526020600020018190555081600960008381526020019081526020016000208190555060096000858152602001908152602001600020600090556008805480612f7357612f72614799565b5b6001900381819060005260206000200160009055905550505050565b6000612f9a836110c6565b905081600660008573ffffffffffffffffffffffffffffffffffffffff1673ffffffffffffffffffffffffffffffffffffffff168152602001908152602001600020600083815260200190815260200160002081905550806007600084815260200190815260200160002081905550505050565b6000808273ffffffffffffffffffffffffffffffffffffffff163b119050919050565b82805461303d906138bd565b90600052602060002090601f01602090048101928261305f57600085556130a6565b82601f1061307857805160ff19168380011785556130a6565b828001600101855582156130a6579182015b828111156130a557825182559160200191906001019061308a565b5b5090506130b391906130b7565b5090565b5b808211156130d05760008160009055506001016130b8565b5090565b6000604051905090565b600080fd5b600080fd5b60007fffffffff0000000000000000000000000000000000000000000000000000000082169050919050565b61311d816130e8565b811461312857600080fd5b50565b60008135905061313a81613114565b92915050565b600060208284031215613156576131556130de565b5b60006131648482850161312b565b91505092915050565b60008115159050919050565b6131828161316d565b82525050565b600060208201905061319d6000830184613179565b92915050565b600081519050919050565b600082825260208201905092915050565b60005b838110156131dd5780820151818401526020810190506131c2565b838111156131ec576000848401525b50505050565b6000601f19601f8301169050919050565b600061320e826131a3565b61321881856131ae565b93506132288185602086016131bf565b613231816131f2565b840191505092915050565b600060208201905081810360008301526132568184613203565b905092915050565b6000819050919050565b6132718161325e565b811461327c57600080fd5b50565b60008135905061328e81613268565b92915050565b6000602082840312156132aa576132a96130de565b5b60006132b88482850161327f565b91505092915050565b600073ffffffffffffffffffffffffffffffffffffffff82169050919050565b60006132ec826132c1565b9050919050565b6132fc816132e1565b82525050565b600060208201905061331760008301846132f3565b92915050565b613326816132e1565b811461333157600080fd5b50565b6000813590506133438161331d565b92915050565b600080604083850312156133605761335f6130de565b5b600061336e85828601613334565b925050602061337f8582860161327f565b9150509250929050565b6133928161325e565b82525050565b60006020820190506133ad6000830184613389565b92915050565b6000806000606084860312156133cc576133cb6130de565b5b60006133da86828701613334565b93505060206133eb86828701613334565b92505060406133fc8682870161327f565b9150509250925092565b61340f8161316d565b811461341a57600080fd5b50565b60008135905061342c81613406565b92915050565b600060208284031215613448576134476130de565b5b60006134568482850161341d565b91505092915050565b600060208284031215613475576134746130de565b5b600061348384828501613334565b91505092915050565b600081519050919050565b600082825260208201905092915050565b6000819050602082019050919050565b6134c18161325e565b82525050565b60006134d383836134b8565b60208301905092915050565b6000602082019050919050565b60006134f78261348c565b6135018185613497565b935061350c836134a8565b8060005b8381101561353d57815161352488826134c7565b975061352f836134df565b925050600181019050613510565b5085935050505092915050565b6000602082019050818103600083015261356481846134ec565b905092915050565b600080fd5b600080fd5b7f4e487b7100000000000000000000000000000000000000000000000000000000600052604160045260246000fd5b6135ae826131f2565b810181811067ffffffffffffffff821117156135cd576135cc613576565b5b80604052505050565b60006135e06130d4565b90506135ec82826135a5565b919050565b600067ffffffffffffffff82111561360c5761360b613576565b5b613615826131f2565b9050602081019050919050565b82818337600083830152505050565b600061364461363f846135f1565b6135d6565b9050828152602081018484840111156136605761365f613571565b5b61366b848285613622565b509392505050565b600082601f8301126136885761368761356c565b5b8135613698848260208601613631565b91505092915050565b6000602082840312156136b7576136b66130de565b5b600082013567ffffffffffffffff8111156136d5576136d46130e3565b5b6136e184828501613673565b91505092915050565b60008060408385031215613701576137006130de565b5b600061370f85828601613334565b92505060206137208582860161341d565b9150509250929050565b600067ffffffffffffffff82111561374557613744613576565b5b61374e826131f2565b9050602081019050919050565b600061376e6137698461372a565b6135d6565b90508281526020810184848401111561378a57613789613571565b5b613795848285613622565b509392505050565b600082601f8301126137b2576137b161356c565b5b81356137c284826020860161375b565b91505092915050565b600080600080608085870312156137e5576137e46130de565b5b60006137f387828801613334565b945050602061380487828801613334565b93505060406138158782880161327f565b925050606085013567ffffffffffffffff811115613836576138356130e3565b5b6138428782880161379d565b91505092959194509250565b60008060408385031215613865576138646130de565b5b600061387385828601613334565b925050602061388485828601613334565b9150509250929050565b7f4e487b7100000000000000000000000000000000000000000000000000000000600052602260045260246000fd5b600060028204905060018216806138d557607f821691505b602082108114156138e9576138e861388e565b5b50919050565b7f4552433732313a20617070726f76616c20746f2063757272656e74206f776e6560008201527f7200000000000000000000000000000000000000000000000000000000000000602082015250565b600061394b6021836131ae565b9150613956826138ef565b604082019050919050565b6000602082019050818103600083015261397a8161393e565b9050919050565b7f4552433732313a20617070726f76652063616c6c6572206973206e6f7420746f60008201527f6b656e206f776e6572206f7220617070726f76656420666f7220616c6c000000602082015250565b60006139dd603d836131ae565b91506139e882613981565b604082019050919050565b60006020820190508181036000830152613a0c816139d0565b9050919050565b7f4552433732313a2063616c6c6572206973206e6f7420746f6b656e206f776e6560008201527f72206f7220617070726f76656400000000000000000000000000000000000000602082015250565b6000613a6f602d836131ae565b9150613a7a82613a13565b604082019050919050565b60006020820190508181036000830152613a9e81613a62565b9050919050565b7f455243373231456e756d657261626c653a206f776e657220696e646578206f7560008201527f74206f6620626f756e6473000000000000000000000000000000000000000000602082015250565b6000613b01602b836131ae565b9150613b0c82613aa5565b604082019050919050565b60006020820190508181036000830152613b3081613af4565b9050919050565b600081905092915050565b50565b6000613b52600083613b37565b9150613b5d82613b42565b600082019050919050565b6000613b7382613b45565b9150819050919050565b7f4e487b7100000000000000000000000000000000000000000000000000000000600052603260045260246000fd5b7f4e487b7100000000000000000000000000000000000000000000000000000000600052601160045260246000fd5b6000613be68261325e565b91507fffffffffffffffffffffffffffffffffffffffffffffffffffffffffffffffff821415613c1957613c18613bac565b5b600182019050919050565b7f455243373231456e756d657261626c653a20676c6f62616c20696e646578206f60008201527f7574206f6620626f756e64730000000000000000000000000000000000000000602082015250565b6000613c80602c836131ae565b9150613c8b82613c24565b604082019050919050565b60006020820190508181036000830152613caf81613c73565b9050919050565b7f4552433732313a20696e76616c696420746f6b656e2049440000000000000000600082015250565b6000613cec6018836131ae565b9150613cf782613cb6565b602082019050919050565b60006020820190508181036000830152613d1b81613cdf565b9050919050565b7f4552433732313a2061646472657373207a65726f206973206e6f74206120766160008201527f6c6964206f776e65720000000000000000000000000000000000000000000000602082015250565b6000613d7e6029836131ae565b9150613d8982613d22565b604082019050919050565b60006020820190508181036000830152613dad81613d71565b9050919050565b6000613dbf8261325e565b9150613dca8361325e565b9250827fffffffffffffffffffffffffffffffffffffffffffffffffffffffffffffffff03821115613dff57613dfe613bac565b5b828201905092915050565b7f4d696e74696e67206e6f7720616c6c6f77656420796574000000000000000000600082015250565b6000613e406017836131ae565b9150613e4b82613e0a565b602082019050919050565b60006020820190508181036000830152613e6f81613e33565b9050919050565b6000613e818261325e565b9150613e8c8361325e565b9250817fffffffffffffffffffffffffffffffffffffffffffffffffffffffffffffffff0483118215151615613ec557613ec4613bac565b5b828202905092915050565b7f4e6f7420456e6f7567682046756e647300000000000000000000000000000000600082015250565b6000613f066010836131ae565b9150613f1182613ed0565b602082019050919050565b60006020820190508181036000830152613f3581613ef9565b9050919050565b6000613f478261325e565b9150613f528361325e565b925082821015613f6557613f64613bac565b5b828203905092915050565b7f4552433732314d657461646174613a2055524920717565727920666f72206e6f60008201527f6e6578697374656e7420746f6b656e0000000000000000000000000000000000602082015250565b6000613fcc602f836131ae565b9150613fd782613f70565b604082019050919050565b60006020820190508181036000830152613ffb81613fbf565b9050919050565b600081905092915050565b6000614018826131a3565b6140228185614002565b93506140328185602086016131bf565b80840191505092915050565b60008190508160005260206000209050919050565b60008154614060816138bd565b61406a8186614002565b945060018216600081146140855760018114614096576140c9565b60ff198316865281860193506140c9565b61409f8561403e565b60005b838110156140c1578154818901526001820191506020810190506140a2565b838801955050505b50505092915050565b60006140de828661400d565b91506140ea828561400d565b91506140f68284614053565b9150819050949350505050565b7f4f776e61626c653a206e6577206f776e657220697320746865207a65726f206160008201527f6464726573730000000000000000000000000000000000000000000000000000602082015250565b600061415f6026836131ae565b915061416a82614103565b604082019050919050565b6000602082019050818103600083015261418e81614152565b9050919050565b7f4552433732313a207472616e736665722063616c6c6572206973206e6f74206f60008201527f776e6572206e6f7220617070726f766564000000000000000000000000000000602082015250565b60006141f16031836131ae565b91506141fc82614195565b604082019050919050565b60006020820190508181036000830152614220816141e4565b9050919050565b7f4e487b7100000000000000000000000000000000000000000000000000000000600052601260045260246000fd5b60006142618261325e565b915061426c8361325e565b92508261427c5761427b614227565b5b828204905092915050565b600060608201905061429c60008301866132f3565b6142a960208301856132f3565b6142b66040830184613389565b949350505050565b7f4f776e61626c653a2063616c6c6572206973206e6f7420746865206f776e6572600082015250565b60006142f46020836131ae565b91506142ff826142be565b602082019050919050565b60006020820190508181036000830152614323816142e7565b9050919050565b7f4552433732313a20617070726f766520746f2063616c6c657200000000000000600082015250565b60006143606019836131ae565b915061436b8261432a565b602082019050919050565b6000602082019050818103600083015261438f81614353565b9050919050565b7f4552433732313a207472616e736665722066726f6d20696e636f72726563742060008201527f6f776e6572000000000000000000000000000000000000000000000000000000602082015250565b60006143f26025836131ae565b91506143fd82614396565b604082019050919050565b60006020820190508181036000830152614421816143e5565b9050919050565b7f4552433732313a207472616e7366657220746f20746865207a65726f2061646460008201527f7265737300000000000000000000000000000000000000000000000000000000602082015250565b60006144846024836131ae565b915061448f82614428565b604082019050919050565b600060208201905081810360008301526144b381614477565b9050919050565b7f4552433732313a207472616e7366657220746f206e6f6e20455243373231526560008201527f63656976657220696d706c656d656e7465720000000000000000000000000000602082015250565b60006145166032836131ae565b9150614521826144ba565b604082019050919050565b6000602082019050818103600083015261454581614509565b9050919050565b7f455243373231456e756d657261626c653a20636f6e736563757469766520747260008201527f616e7366657273206e6f7420737570706f727465640000000000000000000000602082015250565b60006145a86035836131ae565b91506145b38261454c565b604082019050919050565b600060208201905081810360008301526145d78161459b565b9050919050565b7f4552433732313a206d696e7420746f20746865207a65726f2061646472657373600082015250565b60006146146020836131ae565b915061461f826145de565b602082019050919050565b6000602082019050818103600083015261464381614607565b9050919050565b7f4552433732313a20746f6b656e20616c7265616479206d696e74656400000000600082015250565b6000614680601c836131ae565b915061468b8261464a565b602082019050919050565b600060208201905081810360008301526146af81614673565b9050919050565b600081519050919050565b600082825260208201905092915050565b60006146dd826146b6565b6146e781856146c1565b93506146f78185602086016131bf565b614700816131f2565b840191505092915050565b600060808201905061472060008301876132f3565b61472d60208301866132f3565b61473a6040830185613389565b818103606083015261474c81846146d2565b905095945050505050565b60008151905061476681613114565b92915050565b600060208284031215614782576147816130de565b5b600061479084828501614757565b91505092915050565b7f4e487b7100000000000000000000000000000000000000000000000000000000600052603160045260246000fdfea2646970667358221220d1f3c561db00a979d580821d838c09c76a717ec3c0468bfac2b16a8aadeb1b6a64736f6c63430008090033",
  "immutableReferences": {},
  "source": "// SPDX-License-Identifier: MIT\npragma solidity ^0.8.0;\n\nimport \"@openzeppelin/contracts/utils/introspection/IERC165.sol\";\nimport \"@openzeppelin/contracts/token/ERC721/IERC721.sol\";\nimport \"@openzeppelin/contracts/token/ERC721/extensions/IERC721Enumerable.sol\";\nimport \"@openzeppelin/contracts/utils/introspection/ERC165.sol\";\nimport \"@openzeppelin/contracts/utils/Strings.sol\";\nimport \"@openzeppelin/contracts/utils/Address.sol\";\nimport \"@openzeppelin/contracts/token/ERC721/extensions/IERC721Metadata.sol\";\nimport \"@openzeppelin/contracts/token/ERC721/IERC721Receiver.sol\";\nimport \"@openzeppelin/contracts/utils/Context.sol\";\nimport \"@openzeppelin/contracts/token/ERC721/ERC721.sol\";\nimport \"@openzeppelin/contracts/token/ERC721/extensions/ERC721Enumerable.sol\";\nimport \"@openzeppelin/contracts/access/Ownable.sol\";\n\ncontract FunkyCats is ERC721Enumerable, Ownable {\n    using Strings for uint256;\n\n    string baseURI;\n    string public baseExtension = \".json\";\n    uint256 public cost;\n    uint256 public maxSupply;\n    uint256 public maxMintAmount = 1;\n    uint256 public timeDeployed;\n    uint256 public allowMintingAfter = 0;\n    bool public isPaused = false;\n    bool public isRevealed = true;\n    string public notRevealedUri;\n    address public artist;\n    uint256 public royalityFee;\n\n    event Sale(address from, address to, uint256 value);\n    constructor(\n        string memory _name,\n        string memory _symbol,\n        uint256 _cost,\n        uint256 _maxSupply,\n        uint256 _allowMintingOn,\n        string memory _initBaseURI,\n        string memory _initNotRevealedUri,\n        uint256 _royalityFee,\n        address _artist\n    ) ERC721(_name, _symbol) {\n        if (_allowMintingOn > block.timestamp) {\n            allowMintingAfter = _allowMintingOn - block.timestamp;\n        }\n\n        cost = _cost;\n        maxSupply = _maxSupply;\n        timeDeployed = block.timestamp;\n        royalityFee = _royalityFee;\n        artist = _artist;\n\n        setBaseURI(_initBaseURI);\n        setNotRevealedURI(_initNotRevealedUri);\n    }\n\n    // internal\n    function _baseURI() internal view virtual override returns (string memory) {\n        return baseURI;\n    }\n\n    // public\n    function mint(uint256 _mintAmount) public payable {\n        require(\n            block.timestamp >= timeDeployed + allowMintingAfter,\n            \"Minting now allowed yet\"\n        );\n\n        uint256 supply = totalSupply();\n        require(!isPaused);\n        require(_mintAmount > 0);\n        require(_mintAmount <= maxMintAmount);\n        require(supply + _mintAmount <= maxSupply);\n\n        if (msg.sender != owner()) {\n            require(msg.value >= cost * _mintAmount, \"Not Enough Funds\");\n        }\n\n        for (uint256 i = 1; i <= _mintAmount; i++) {\n            _safeMint(msg.sender, supply + i);\n        }\n    }\n\n    function walletOfOwner(address _owner)\n        public\n        view\n        returns (uint256[] memory)\n    {\n        uint256 ownerTokenCount = balanceOf(_owner);\n        uint256[] memory tokenIds = new uint256[](ownerTokenCount);\n        for (uint256 i; i < ownerTokenCount; i++) {\n            tokenIds[i] = tokenOfOwnerByIndex(_owner, i);\n        }\n        return tokenIds;\n    }\n\n    function tokenURI(uint256 tokenId)\n        public\n        view\n        virtual\n        override\n        returns (string memory)\n    {\n        require(\n            _exists(tokenId),\n            \"ERC721Metadata: URI query for nonexistent token\"\n        );\n\n        if (isRevealed == false) {\n            return notRevealedUri;\n        }\n\n        string memory currentBaseURI = _baseURI();\n        return\n            bytes(currentBaseURI).length > 0\n                ? string(\n                    abi.encodePacked(\n                        currentBaseURI,\n                        tokenId.toString(),\n                        baseExtension\n                    )\n                )\n                : \"\";\n    }\n\n    function _transfer(\n        address from,\n        address to,\n        uint256 tokenId\n    ) internal virtual override {\n        require(\n            _isApprovedOrOwner(_msgSender(), tokenId),\n            \"ERC721: transfer caller is not owner nor approved\"\n        );\n\n        if (msg.value > 0) {\n            uint256 royality = (msg.value * royalityFee) / 100;\n            _payRoyality(royality);\n\n            (bool success2, ) = payable(from).call{value: msg.value - royality}(\n                \"\"\n            );\n            require(success2);\n\n            emit Sale(from, to, msg.value);\n        }\n\n        super._transfer(from, to, tokenId);\n    }\n\n    function _safeTransfer(\n        address from,\n        address to,\n        uint256 tokenId,\n        bytes memory _data\n    ) internal virtual override {\n        require(\n            _isApprovedOrOwner(_msgSender(), tokenId),\n            \"ERC721: transfer caller is not owner nor approved\"\n        );\n\n        if (msg.value > 0) {\n            uint256 royality = (msg.value * royalityFee) / 100;\n            _payRoyality(royality);\n\n            (bool success2, ) = payable(from).call{value: msg.value - royality}(\n                \"\"\n            );\n            require(success2);\n\n            emit Sale(from, to, msg.value);\n        }\n\n        super._safeTransfer(from, to, tokenId, _data);\n    }\n\n    function getSecondsUntilMinting() public view returns (uint256) {\n        if (block.timestamp < timeDeployed + allowMintingAfter) {\n            return (timeDeployed + allowMintingAfter) - block.timestamp;\n        } else {\n            return 0;\n        }\n    }\n\n    // Only Owner Functions\n    function setIsRevealed(bool _state) public onlyOwner {\n        isRevealed = _state;\n    }\n\n    function setCost(uint256 _newCost) public onlyOwner {\n        cost = _newCost;\n    }\n\n    function setmaxMintAmount(uint256 _newmaxMintAmount) public onlyOwner {\n        maxMintAmount = _newmaxMintAmount;\n    }\n\n    function setNotRevealedURI(string memory _notRevealedURI) public onlyOwner {\n        notRevealedUri = _notRevealedURI;\n    }\n\n    function setBaseURI(string memory _newBaseURI) public onlyOwner {\n        baseURI = _newBaseURI;\n    }\n\n    function setBaseExtension(string memory _newBaseExtension)\n        public\n        onlyOwner\n    {\n        baseExtension = _newBaseExtension;\n    }\n\n    function setIsPaused(bool _state) public onlyOwner {\n        isPaused = _state;\n    }\n\n    function withdraw() public payable onlyOwner {\n        (bool success, ) = payable(msg.sender).call{\n            value: address(this).balance\n        }(\"\");\n        require(success);\n    }\n\n    function _payRoyality(uint256 _royalityFee) internal {\n        (bool success1, ) = payable(artist).call{value: _royalityFee}(\"\");\n        require(success1);\n    }\n\n    function setRoyalityFee(uint256 _royalityFee) public onlyOwner {\n        royalityFee = _royalityFee;\n    }\n}\n",
  "sourcePath": "/Users/vivek.verma/Downloads/funky_cats-new/src/contracts/FunkyCats.sol",
  "compiler": {
    "name": "solc",
    "version": "0.8.9+commit.e5eed63a.Emscripten.clang"
  },
  "schemaVersion": "3.4.13",
  "updatedAt": "2023-03-19T09:27:03.128Z",
  "networkType": "ethereum",
  "devdoc": {
    "kind": "dev",
    "methods": {
      "approve(address,uint256)": {
        "details": "See {IERC721-approve}."
      },
      "balanceOf(address)": {
        "details": "See {IERC721-balanceOf}."
      },
      "getApproved(uint256)": {
        "details": "See {IERC721-getApproved}."
      },
      "isApprovedForAll(address,address)": {
        "details": "See {IERC721-isApprovedForAll}."
      },
      "name()": {
        "details": "See {IERC721Metadata-name}."
      },
      "owner()": {
        "details": "Returns the address of the current owner."
      },
      "ownerOf(uint256)": {
        "details": "See {IERC721-ownerOf}."
      },
      "renounceOwnership()": {
        "details": "Leaves the contract without owner. It will not be possible to call `onlyOwner` functions anymore. Can only be called by the current owner. NOTE: Renouncing ownership will leave the contract without an owner, thereby removing any functionality that is only available to the owner."
      },
      "safeTransferFrom(address,address,uint256)": {
        "details": "See {IERC721-safeTransferFrom}."
      },
      "safeTransferFrom(address,address,uint256,bytes)": {
        "details": "See {IERC721-safeTransferFrom}."
      },
      "setApprovalForAll(address,bool)": {
        "details": "See {IERC721-setApprovalForAll}."
      },
      "supportsInterface(bytes4)": {
        "details": "See {IERC165-supportsInterface}."
      },
      "symbol()": {
        "details": "See {IERC721Metadata-symbol}."
      },
      "tokenByIndex(uint256)": {
        "details": "See {IERC721Enumerable-tokenByIndex}."
      },
      "tokenOfOwnerByIndex(address,uint256)": {
        "details": "See {IERC721Enumerable-tokenOfOwnerByIndex}."
      },
      "tokenURI(uint256)": {
        "details": "See {IERC721Metadata-tokenURI}."
      },
      "totalSupply()": {
        "details": "See {IERC721Enumerable-totalSupply}."
      },
      "transferFrom(address,address,uint256)": {
        "details": "See {IERC721-transferFrom}."
      },
      "transferOwnership(address)": {
        "details": "Transfers ownership of the contract to a new account (`newOwner`). Can only be called by the current owner."
      }
    },
    "version": 1
  },
  "userdoc": {
    "kind": "user",
    "methods": {},
    "version": 1
  }
}